{
  "contractName": "EventureNFT",
  "abi": [
    {
      "inputs": [],
      "stateMutability": "nonpayable",
      "type": "constructor"
    },
    {
      "inputs": [
        {
          "internalType": "address",
          "name": "sender",
          "type": "address"
        },
        {
          "internalType": "uint256",
          "name": "tokenId",
          "type": "uint256"
        },
        {
          "internalType": "address",
          "name": "owner",
          "type": "address"
        }
      ],
      "name": "ERC721IncorrectOwner",
      "type": "error"
    },
    {
      "inputs": [
        {
          "internalType": "address",
          "name": "operator",
          "type": "address"
        },
        {
          "internalType": "uint256",
          "name": "tokenId",
          "type": "uint256"
        }
      ],
      "name": "ERC721InsufficientApproval",
      "type": "error"
    },
    {
      "inputs": [
        {
          "internalType": "address",
          "name": "approver",
          "type": "address"
        }
      ],
      "name": "ERC721InvalidApprover",
      "type": "error"
    },
    {
      "inputs": [
        {
          "internalType": "address",
          "name": "operator",
          "type": "address"
        }
      ],
      "name": "ERC721InvalidOperator",
      "type": "error"
    },
    {
      "inputs": [
        {
          "internalType": "address",
          "name": "owner",
          "type": "address"
        }
      ],
      "name": "ERC721InvalidOwner",
      "type": "error"
    },
    {
      "inputs": [
        {
          "internalType": "address",
          "name": "receiver",
          "type": "address"
        }
      ],
      "name": "ERC721InvalidReceiver",
      "type": "error"
    },
    {
      "inputs": [
        {
          "internalType": "address",
          "name": "sender",
          "type": "address"
        }
      ],
      "name": "ERC721InvalidSender",
      "type": "error"
    },
    {
      "inputs": [
        {
          "internalType": "uint256",
          "name": "tokenId",
          "type": "uint256"
        }
      ],
      "name": "ERC721NonexistentToken",
      "type": "error"
    },
    {
      "inputs": [
        {
          "internalType": "address",
          "name": "owner",
          "type": "address"
        }
      ],
      "name": "OwnableInvalidOwner",
      "type": "error"
    },
    {
      "inputs": [
        {
          "internalType": "address",
          "name": "account",
          "type": "address"
        }
      ],
      "name": "OwnableUnauthorizedAccount",
      "type": "error"
    },
    {
      "anonymous": false,
      "inputs": [
        {
          "indexed": true,
          "internalType": "address",
          "name": "owner",
          "type": "address"
        },
        {
          "indexed": true,
          "internalType": "address",
          "name": "approved",
          "type": "address"
        },
        {
          "indexed": true,
          "internalType": "uint256",
          "name": "tokenId",
          "type": "uint256"
        }
      ],
      "name": "Approval",
      "type": "event"
    },
    {
      "anonymous": false,
      "inputs": [
        {
          "indexed": true,
          "internalType": "address",
          "name": "owner",
          "type": "address"
        },
        {
          "indexed": true,
          "internalType": "address",
          "name": "operator",
          "type": "address"
        },
        {
          "indexed": false,
          "internalType": "bool",
          "name": "approved",
          "type": "bool"
        }
      ],
      "name": "ApprovalForAll",
      "type": "event"
    },
    {
      "anonymous": false,
      "inputs": [
        {
          "indexed": false,
          "internalType": "uint256",
          "name": "_fromTokenId",
          "type": "uint256"
        },
        {
          "indexed": false,
          "internalType": "uint256",
          "name": "_toTokenId",
          "type": "uint256"
        }
      ],
      "name": "BatchMetadataUpdate",
      "type": "event"
    },
    {
      "anonymous": false,
      "inputs": [
        {
          "indexed": false,
          "internalType": "uint256",
          "name": "_tokenId",
          "type": "uint256"
        }
      ],
      "name": "MetadataUpdate",
      "type": "event"
    },
    {
      "anonymous": false,
      "inputs": [
        {
          "indexed": true,
          "internalType": "address",
          "name": "previousOwner",
          "type": "address"
        },
        {
          "indexed": true,
          "internalType": "address",
          "name": "newOwner",
          "type": "address"
        }
      ],
      "name": "OwnershipTransferred",
      "type": "event"
    },
    {
      "anonymous": false,
      "inputs": [
        {
          "indexed": true,
          "internalType": "address",
          "name": "from",
          "type": "address"
        },
        {
          "indexed": true,
          "internalType": "address",
          "name": "to",
          "type": "address"
        },
        {
          "indexed": true,
          "internalType": "uint256",
          "name": "tokenId",
          "type": "uint256"
        }
      ],
      "name": "Transfer",
      "type": "event"
    },
    {
      "inputs": [],
      "name": "admin",
      "outputs": [
        {
          "internalType": "address",
          "name": "",
          "type": "address"
        }
      ],
      "stateMutability": "view",
      "type": "function",
      "constant": true
    },
    {
      "inputs": [
        {
          "internalType": "address",
          "name": "to",
          "type": "address"
        },
        {
          "internalType": "uint256",
          "name": "tokenId",
          "type": "uint256"
        }
      ],
      "name": "approve",
      "outputs": [],
      "stateMutability": "nonpayable",
      "type": "function"
    },
    {
      "inputs": [
        {
          "internalType": "address",
          "name": "owner",
          "type": "address"
        }
      ],
      "name": "balanceOf",
      "outputs": [
        {
          "internalType": "uint256",
          "name": "",
          "type": "uint256"
        }
      ],
      "stateMutability": "view",
      "type": "function",
      "constant": true
    },
    {
      "inputs": [
        {
          "internalType": "uint256",
          "name": "",
          "type": "uint256"
        }
      ],
      "name": "events",
      "outputs": [
        {
          "internalType": "address",
          "name": "organizer",
          "type": "address"
        },
        {
          "internalType": "string",
          "name": "metadataHash",
          "type": "string"
        },
        {
          "internalType": "uint256",
          "name": "maxTickets",
          "type": "uint256"
        },
        {
          "internalType": "uint256",
          "name": "soldCount",
          "type": "uint256"
        },
        {
          "internalType": "bool",
          "name": "isCancelled",
          "type": "bool"
        },
        {
          "internalType": "bool",
          "name": "exists",
          "type": "bool"
        }
      ],
      "stateMutability": "view",
      "type": "function",
      "constant": true
    },
    {
      "inputs": [
        {
          "internalType": "uint256",
          "name": "tokenId",
          "type": "uint256"
        }
      ],
      "name": "getApproved",
      "outputs": [
        {
          "internalType": "address",
          "name": "",
          "type": "address"
        }
      ],
      "stateMutability": "view",
      "type": "function",
      "constant": true
    },
    {
      "inputs": [
        {
          "internalType": "address",
          "name": "owner",
          "type": "address"
        },
        {
          "internalType": "address",
          "name": "operator",
          "type": "address"
        }
      ],
      "name": "isApprovedForAll",
      "outputs": [
        {
          "internalType": "bool",
          "name": "",
          "type": "bool"
        }
      ],
      "stateMutability": "view",
      "type": "function",
      "constant": true
    },
    {
      "inputs": [
        {
          "internalType": "uint256",
          "name": "",
          "type": "uint256"
        }
      ],
      "name": "isListed",
      "outputs": [
        {
          "internalType": "bool",
          "name": "",
          "type": "bool"
        }
      ],
      "stateMutability": "view",
      "type": "function",
      "constant": true
    },
    {
      "inputs": [],
      "name": "name",
      "outputs": [
        {
          "internalType": "string",
          "name": "",
          "type": "string"
        }
      ],
      "stateMutability": "view",
      "type": "function",
      "constant": true
    },
    {
      "inputs": [],
      "name": "nextTokenId",
      "outputs": [
        {
          "internalType": "uint256",
          "name": "",
          "type": "uint256"
        }
      ],
      "stateMutability": "view",
      "type": "function",
      "constant": true
    },
    {
      "inputs": [],
      "name": "owner",
      "outputs": [
        {
          "internalType": "address",
          "name": "",
          "type": "address"
        }
      ],
      "stateMutability": "view",
      "type": "function",
      "constant": true
    },
    {
      "inputs": [
        {
          "internalType": "uint256",
          "name": "tokenId",
          "type": "uint256"
        }
      ],
      "name": "ownerOf",
      "outputs": [
        {
          "internalType": "address",
          "name": "",
          "type": "address"
        }
      ],
      "stateMutability": "view",
      "type": "function",
      "constant": true
    },
    {
      "inputs": [],
      "name": "renounceOwnership",
      "outputs": [],
      "stateMutability": "nonpayable",
      "type": "function"
    },
    {
      "inputs": [
        {
          "internalType": "uint256",
          "name": "",
          "type": "uint256"
        }
      ],
      "name": "resalePrice",
      "outputs": [
        {
          "internalType": "uint256",
          "name": "",
          "type": "uint256"
        }
      ],
      "stateMutability": "view",
      "type": "function",
      "constant": true
    },
    {
      "inputs": [
        {
          "internalType": "address",
          "name": "from",
          "type": "address"
        },
        {
          "internalType": "address",
          "name": "to",
          "type": "address"
        },
        {
          "internalType": "uint256",
          "name": "tokenId",
          "type": "uint256"
        }
      ],
      "name": "safeTransferFrom",
      "outputs": [],
      "stateMutability": "nonpayable",
      "type": "function"
    },
    {
      "inputs": [
        {
          "internalType": "address",
          "name": "from",
          "type": "address"
        },
        {
          "internalType": "address",
          "name": "to",
          "type": "address"
        },
        {
          "internalType": "uint256",
          "name": "tokenId",
          "type": "uint256"
        },
        {
          "internalType": "bytes",
          "name": "data",
          "type": "bytes"
        }
      ],
      "name": "safeTransferFrom",
      "outputs": [],
      "stateMutability": "nonpayable",
      "type": "function"
    },
    {
      "inputs": [
        {
          "internalType": "address",
          "name": "operator",
          "type": "address"
        },
        {
          "internalType": "bool",
          "name": "approved",
          "type": "bool"
        }
      ],
      "name": "setApprovalForAll",
      "outputs": [],
      "stateMutability": "nonpayable",
      "type": "function"
    },
    {
      "inputs": [
        {
          "internalType": "bytes4",
          "name": "interfaceId",
          "type": "bytes4"
        }
      ],
      "name": "supportsInterface",
      "outputs": [
        {
          "internalType": "bool",
          "name": "",
          "type": "bool"
        }
      ],
      "stateMutability": "view",
      "type": "function",
      "constant": true
    },
    {
      "inputs": [],
      "name": "symbol",
      "outputs": [
        {
          "internalType": "string",
          "name": "",
          "type": "string"
        }
      ],
      "stateMutability": "view",
      "type": "function",
      "constant": true
    },
    {
      "inputs": [
        {
          "internalType": "uint256",
          "name": "",
          "type": "uint256"
        }
      ],
      "name": "ticketEvent",
      "outputs": [
        {
          "internalType": "uint256",
          "name": "",
          "type": "uint256"
        }
      ],
      "stateMutability": "view",
      "type": "function",
      "constant": true
    },
    {
      "inputs": [
        {
          "internalType": "uint256",
          "name": "",
          "type": "uint256"
        }
      ],
      "name": "ticketPrice",
      "outputs": [
        {
          "internalType": "uint256",
          "name": "",
          "type": "uint256"
        }
      ],
      "stateMutability": "view",
      "type": "function",
      "constant": true
    },
    {
      "inputs": [
        {
          "internalType": "uint256",
          "name": "",
          "type": "uint256"
        }
      ],
      "name": "tokenExists",
      "outputs": [
        {
          "internalType": "bool",
          "name": "",
          "type": "bool"
        }
      ],
      "stateMutability": "view",
      "type": "function",
      "constant": true
    },
    {
      "inputs": [
        {
          "internalType": "uint256",
          "name": "tokenId",
          "type": "uint256"
        }
      ],
      "name": "tokenURI",
      "outputs": [
        {
          "internalType": "string",
          "name": "",
          "type": "string"
        }
      ],
      "stateMutability": "view",
      "type": "function",
      "constant": true
    },
    {
      "inputs": [
        {
          "internalType": "address",
          "name": "from",
          "type": "address"
        },
        {
          "internalType": "address",
          "name": "to",
          "type": "address"
        },
        {
          "internalType": "uint256",
          "name": "tokenId",
          "type": "uint256"
        }
      ],
      "name": "transferFrom",
      "outputs": [],
      "stateMutability": "nonpayable",
      "type": "function"
    },
    {
      "inputs": [
        {
          "internalType": "address",
          "name": "newOwner",
          "type": "address"
        }
      ],
      "name": "transferOwnership",
      "outputs": [],
      "stateMutability": "nonpayable",
      "type": "function"
    },
    {
      "stateMutability": "payable",
      "type": "receive",
      "payable": true
    },
    {
      "inputs": [
        {
          "internalType": "uint256",
          "name": "eventId",
          "type": "uint256"
        },
        {
          "internalType": "string",
          "name": "metadataHash",
          "type": "string"
        },
        {
          "internalType": "uint256",
          "name": "maxTickets",
          "type": "uint256"
        }
      ],
      "name": "createEvent",
      "outputs": [],
      "stateMutability": "nonpayable",
      "type": "function"
    },
    {
      "inputs": [
        {
          "internalType": "address",
          "name": "to",
          "type": "address"
        },
        {
          "internalType": "uint256",
          "name": "eventId",
          "type": "uint256"
        },
        {
          "internalType": "string",
          "name": "tokenURI",
          "type": "string"
        }
      ],
      "name": "mintTicket",
      "outputs": [],
      "stateMutability": "payable",
      "type": "function",
      "payable": true
    },
    {
      "inputs": [
        {
          "internalType": "uint256",
          "name": "eventId",
          "type": "uint256"
        }
      ],
      "name": "cancelEvent",
      "outputs": [],
      "stateMutability": "nonpayable",
      "type": "function"
    },
    {
      "inputs": [
        {
          "internalType": "uint256",
          "name": "tokenId",
          "type": "uint256"
        }
      ],
      "name": "refund",
      "outputs": [],
      "stateMutability": "nonpayable",
      "type": "function"
    },
    {
      "inputs": [
        {
          "internalType": "address",
          "name": "user",
          "type": "address"
        },
        {
          "internalType": "uint256",
          "name": "eventId",
          "type": "uint256"
        },
        {
          "internalType": "uint256",
          "name": "price",
          "type": "uint256"
        }
      ],
      "name": "listTicketForResale",
      "outputs": [],
      "stateMutability": "nonpayable",
      "type": "function"
    },
    {
      "inputs": [
        {
          "internalType": "address",
          "name": "seller",
          "type": "address"
        },
        {
          "internalType": "uint256",
          "name": "eventId",
          "type": "uint256"
        }
      ],
      "name": "buyResaleTicket",
      "outputs": [],
      "stateMutability": "payable",
      "type": "function",
      "payable": true
    },
    {
      "inputs": [
        {
          "internalType": "address",
          "name": "newAdmin",
          "type": "address"
        }
      ],
      "name": "setAdmin",
      "outputs": [],
      "stateMutability": "nonpayable",
      "type": "function"
    }
  ],
  "bytecode": "0x608060405234801562000010575f80fd5b50336040518060400160405280600e81526020017f4576656e747572655469636b65740000000000000000000000000000000000008152506040518060400160405280600481526020017f4554495800000000000000000000000000000000000000000000000000000000815250815f90816200008e919062000495565b508060019081620000a0919062000495565b5050505f73ffffffffffffffffffffffffffffffffffffffff168173ffffffffffffffffffffffffffffffffffffffff160362000116575f6040517f1e4fbdf70000000000000000000000000000000000000000000000000000000081526004016200010d9190620005bc565b60405180910390fd5b62000127816200016e60201b60201c565b503360095f6101000a81548173ffffffffffffffffffffffffffffffffffffffff021916908373ffffffffffffffffffffffffffffffffffffffff160217905550620005d7565b5f60075f9054906101000a900473ffffffffffffffffffffffffffffffffffffffff1690508160075f6101000a81548173ffffffffffffffffffffffffffffffffffffffff021916908373ffffffffffffffffffffffffffffffffffffffff1602179055508173ffffffffffffffffffffffffffffffffffffffff168173ffffffffffffffffffffffffffffffffffffffff167f8be0079c531659141344cd1fd0a4f28419497f9722a3daafe3b4186f6b6457e060405160405180910390a35050565b5f81519050919050565b7f4e487b71000000000000000000000000000000000000000000000000000000005f52604160045260245ffd5b7f4e487b71000000000000000000000000000000000000000000000000000000005f52602260045260245ffd5b5f6002820490506001821680620002ad57607f821691505b602082108103620002c357620002c262000268565b5b50919050565b5f819050815f5260205f209050919050565b5f6020601f8301049050919050565b5f82821b905092915050565b5f60088302620003277fffffffffffffffffffffffffffffffffffffffffffffffffffffffffffffffff82620002ea565b620003338683620002ea565b95508019841693508086168417925050509392505050565b5f819050919050565b5f819050919050565b5f6200037d6200037762000371846200034b565b62000354565b6200034b565b9050919050565b5f819050919050565b62000398836200035d565b620003b0620003a78262000384565b848454620002f6565b825550505050565b5f90565b620003c6620003b8565b620003d38184846200038d565b505050565b5b81811015620003fa57620003ee5f82620003bc565b600181019050620003d9565b5050565b601f82111562000449576200041381620002c9565b6200041e84620002db565b810160208510156200042e578190505b620004466200043d85620002db565b830182620003d8565b50505b505050565b5f82821c905092915050565b5f6200046b5f19846008026200044e565b1980831691505092915050565b5f6200048583836200045a565b9150826002028217905092915050565b620004a08262000231565b67ffffffffffffffff811115620004bc57620004bb6200023b565b5b620004c8825462000295565b620004d5828285620003fe565b5f60209050601f8311600181146200050b575f8415620004f6578287015190505b62000502858262000478565b86555062000571565b601f1984166200051b86620002c9565b5f5b8281101562000544578489015182556001820191506020850194506020810190506200051d565b8683101562000564578489015162000560601f8916826200045a565b8355505b6001600288020188555050505b505050505050565b5f73ffffffffffffffffffffffffffffffffffffffff82169050919050565b5f620005a48262000579565b9050919050565b620005b68162000598565b82525050565b5f602082019050620005d15f830184620005ab565b92915050565b61402d80620005e55f395ff3fe6080604052600436106101da575f3560e01c806370a0823111610101578063b4ec509e11610094578063e985e9c511610063578063e985e9c5146106c8578063f2fde38b14610704578063f851a4401461072c578063fcce488314610756576101e1565b8063b4ec509e1461060c578063b88d4fde14610628578063c20b324d14610650578063c87b56dd1461068c576101e1565b806383372b5b116100d057806383372b5b146105685780638da5cb5b1461059057806395d89b41146105ba578063a22cb465146105e4576101e1565b806370a08231146104c4578063715018a61461050057806375794a3c146105165780637f43794114610540576101e1565b80630b791430116101795780633f69babd116101485780633f69babd1461041057806342842e0e146104385780636352211e14610460578063704b6c021461049c576101e1565b80630b791430146103435780630d93e6091461038457806323b872dd146103c0578063278ecde1146103e8576101e1565b80630384ca49116101b55780630384ca491461027957806306fdde03146102b5578063081812fc146102df578063095ea7b31461031b576101e1565b8062923f9e146101e557806301ffc9a71461022157806303543fea1461025d576101e1565b366101e157005b5f80fd5b3480156101f0575f80fd5b5061020b60048036038101906102069190612ca9565b610792565b6040516102189190612cee565b60405180910390f35b34801561022c575f80fd5b5061024760048036038101906102429190612d5c565b6107af565b6040516102549190612cee565b60405180910390f35b61027760048036038101906102729190612f1d565b61080f565b005b348015610284575f80fd5b5061029f600480360381019061029a9190612ca9565b6109b5565b6040516102ac9190612f98565b60405180910390f35b3480156102c0575f80fd5b506102c96109ca565b6040516102d6919061302b565b60405180910390f35b3480156102ea575f80fd5b5061030560048036038101906103009190612ca9565b610a59565b604051610312919061305a565b60405180910390f35b348015610326575f80fd5b50610341600480360381019061033c9190613073565b610a74565b005b34801561034e575f80fd5b5061036960048036038101906103649190612ca9565b610a8a565b60405161037b969594939291906130b1565b60405180910390f35b34801561038f575f80fd5b506103aa60048036038101906103a59190612ca9565b610b80565b6040516103b79190612f98565b60405180910390f35b3480156103cb575f80fd5b506103e660048036038101906103e19190613117565b610b95565b005b3480156103f3575f80fd5b5061040e60048036038101906104099190612ca9565b610c94565b005b34801561041b575f80fd5b5061043660048036038101906104319190612ca9565b610f28565b005b348015610443575f80fd5b5061045e60048036038101906104599190613117565b610ff7565b005b34801561046b575f80fd5b5061048660048036038101906104819190612ca9565b611016565b604051610493919061305a565b60405180910390f35b3480156104a7575f80fd5b506104c260048036038101906104bd9190613167565b611027565b005b3480156104cf575f80fd5b506104ea60048036038101906104e59190613167565b611072565b6040516104f79190612f98565b60405180910390f35b34801561050b575f80fd5b50610514611128565b005b348015610521575f80fd5b5061052a61113b565b6040516105379190612f98565b60405180910390f35b34801561054b575f80fd5b5061056660048036038101906105619190613192565b611141565b005b348015610573575f80fd5b5061058e600480360381019061058991906131e2565b611319565b005b34801561059b575f80fd5b506105a4611489565b6040516105b1919061305a565b60405180910390f35b3480156105c5575f80fd5b506105ce6114b1565b6040516105db919061302b565b60405180910390f35b3480156105ef575f80fd5b5061060a60048036038101906106059190613278565b611541565b005b61062660048036038101906106219190613073565b611557565b005b348015610633575f80fd5b5061064e60048036038101906106499190613354565b6117b7565b005b34801561065b575f80fd5b5061067660048036038101906106719190612ca9565b6117dc565b6040516106839190612f98565b60405180910390f35b348015610697575f80fd5b506106b260048036038101906106ad9190612ca9565b6117f1565b6040516106bf919061302b565b60405180910390f35b3480156106d3575f80fd5b506106ee60048036038101906106e991906133d4565b6118fc565b6040516106fb9190612cee565b60405180910390f35b34801561070f575f80fd5b5061072a60048036038101906107259190613167565b61198a565b005b348015610737575f80fd5b50610740611a0e565b60405161074d919061305a565b60405180910390f35b348015610761575f80fd5b5061077c60048036038101906107779190612ca9565b611a33565b6040516107899190612cee565b60405180910390f35b600d602052805f5260405f205f915054906101000a900460ff1681565b5f634906490660e01b7bffffffffffffffffffffffffffffffffffffffffffffffffffffffff1916827bffffffffffffffffffffffffffffffffffffffffffffffffffffffff19161480610808575061080782611a50565b5b9050919050565b5f600a5f8481526020019081526020015f2090508060040160019054906101000a900460ff16610874576040517f08c379a000000000000000000000000000000000000000000000000000000000815260040161086b9061345c565b60405180910390fd5b806004015f9054906101000a900460ff16156108c5576040517f08c379a00000000000000000000000000000000000000000000000000000000081526004016108bc906134c4565b60405180910390fd5b806002015481600301541061090f576040517f08c379a00000000000000000000000000000000000000000000000000000000081526004016109069061352c565b60405180910390fd5b5f600854905061091f8582611b31565b6109298184611b4e565b83600b5f8381526020019081526020015f208190555034600c5f8381526020019081526020015f20819055506001600d5f8381526020019081526020015f205f6101000a81548160ff021916908315150217905550816003015f81548092919061099290613577565b919050555060085f8154809291906109a990613577565b91905055505050505050565b600e602052805f5260405f205f915090505481565b60605f80546109d8906135eb565b80601f0160208091040260200160405190810160405280929190818152602001828054610a04906135eb565b8015610a4f5780601f10610a2657610100808354040283529160200191610a4f565b820191905f5260205f20905b815481529060010190602001808311610a3257829003601f168201915b5050505050905090565b5f610a6382611ba8565b50610a6d82611c2e565b9050919050565b610a868282610a81611c67565b611c6e565b5050565b600a602052805f5260405f205f91509050805f015f9054906101000a900473ffffffffffffffffffffffffffffffffffffffff1690806001018054610ace906135eb565b80601f0160208091040260200160405190810160405280929190818152602001828054610afa906135eb565b8015610b455780601f10610b1c57610100808354040283529160200191610b45565b820191905f5260205f20905b815481529060010190602001808311610b2857829003601f168201915b505050505090806002015490806003015490806004015f9054906101000a900460ff16908060040160019054906101000a900460ff16905086565b600c602052805f5260405f205f915090505481565b5f73ffffffffffffffffffffffffffffffffffffffff168273ffffffffffffffffffffffffffffffffffffffff1603610c05575f6040517f64a0ae92000000000000000000000000000000000000000000000000000000008152600401610bfc919061305a565b60405180910390fd5b5f610c188383610c13611c67565b611c80565b90508373ffffffffffffffffffffffffffffffffffffffff168173ffffffffffffffffffffffffffffffffffffffff1614610c8e578382826040517f64283d7b000000000000000000000000000000000000000000000000000000008152600401610c859392919061361b565b60405180910390fd5b50505050565b600d5f8281526020019081526020015f205f9054906101000a900460ff16610cf1576040517f08c379a0000000000000000000000000000000000000000000000000000000008152600401610ce89061369a565b60405180910390fd5b3373ffffffffffffffffffffffffffffffffffffffff16610d1182611016565b73ffffffffffffffffffffffffffffffffffffffff1614610d67576040517f08c379a0000000000000000000000000000000000000000000000000000000008152600401610d5e90613702565b60405180910390fd5b5f600b5f8381526020019081526020015f20549050600a5f8281526020019081526020015f206004015f9054906101000a900460ff16610ddc576040517f08c379a0000000000000000000000000000000000000000000000000000000008152600401610dd39061376a565b60405180910390fd5b5f600c5f8481526020019081526020015f205490505f8111610e33576040517f08c379a0000000000000000000000000000000000000000000000000000000008152600401610e2a906137d2565b60405180910390fd5b610e3c83611e8b565b5f600d5f8581526020019081526020015f205f6101000a81548160ff0219169083151502179055505f600c5f8581526020019081526020015f20819055505f3373ffffffffffffffffffffffffffffffffffffffff1682604051610e9f9061381d565b5f6040518083038185875af1925050503d805f8114610ed9576040519150601f19603f3d011682016040523d82523d5f602084013e610ede565b606091505b5050905080610f22576040517f08c379a0000000000000000000000000000000000000000000000000000000008152600401610f199061387b565b60405180910390fd5b50505050565b3373ffffffffffffffffffffffffffffffffffffffff16600a5f8381526020019081526020015f205f015f9054906101000a900473ffffffffffffffffffffffffffffffffffffffff1673ffffffffffffffffffffffffffffffffffffffff1614610fc8576040517f08c379a0000000000000000000000000000000000000000000000000000000008152600401610fbf906138e3565b60405180910390fd5b6001600a5f8381526020019081526020015f206004015f6101000a81548160ff02191690831515021790555050565b61101183838360405180602001604052805f8152506117b7565b505050565b5f61102082611ba8565b9050919050565b61102f611f0d565b8060095f6101000a81548173ffffffffffffffffffffffffffffffffffffffff021916908373ffffffffffffffffffffffffffffffffffffffff16021790555050565b5f8073ffffffffffffffffffffffffffffffffffffffff168273ffffffffffffffffffffffffffffffffffffffff16036110e3575f6040517f89c62b640000000000000000000000000000000000000000000000000000000081526004016110da919061305a565b60405180910390fd5b60035f8373ffffffffffffffffffffffffffffffffffffffff1673ffffffffffffffffffffffffffffffffffffffff1681526020019081526020015f20549050919050565b611130611f0d565b6111395f611f94565b565b60085481565b5f8111611183576040517f08c379a000000000000000000000000000000000000000000000000000000000815260040161117a9061394b565b60405180910390fd5b600a5f8381526020019081526020015f206004015f9054906101000a900460ff16156111e4576040517f08c379a00000000000000000000000000000000000000000000000000000000081526004016111db906139b3565b60405180910390fd5b5f80805f90505b60085481101561129257600d5f8281526020019081526020015f205f9054906101000a900460ff16801561122f575084600b5f8381526020019081526020015f2054145b801561126e57508573ffffffffffffffffffffffffffffffffffffffff1661125682611016565b73ffffffffffffffffffffffffffffffffffffffff16145b1561127f5780915060019250611292565b808061128a90613577565b9150506111eb565b50816112d3576040517f08c379a00000000000000000000000000000000000000000000000000000000081526004016112ca90613a1b565b60405180910390fd5b6001600f5f8381526020019081526020015f205f6101000a81548160ff02191690831515021790555082600e5f8381526020019081526020015f20819055505050505050565b600a5f8481526020019081526020015f2060040160019054906101000a900460ff161561137b576040517f08c379a000000000000000000000000000000000000000000000000000000000815260040161137290613a83565b60405180910390fd5b6040518060c001604052803373ffffffffffffffffffffffffffffffffffffffff1681526020018381526020018281526020015f81526020015f1515815260200160011515815250600a5f8581526020019081526020015f205f820151815f015f6101000a81548173ffffffffffffffffffffffffffffffffffffffff021916908373ffffffffffffffffffffffffffffffffffffffff160217905550602082015181600101908161142d9190613c3e565b5060408201518160020155606082015181600301556080820151816004015f6101000a81548160ff02191690831515021790555060a08201518160040160016101000a81548160ff021916908315150217905550905050505050565b5f60075f9054906101000a900473ffffffffffffffffffffffffffffffffffffffff16905090565b6060600180546114c0906135eb565b80601f01602080910402602001604051908101604052809291908181526020018280546114ec906135eb565b80156115375780601f1061150e57610100808354040283529160200191611537565b820191905f5260205f20905b81548152906001019060200180831161151a57829003601f168201915b5050505050905090565b61155361154c611c67565b8383612057565b5050565b5f80805f90505b60085481101561162b57600d5f8281526020019081526020015f205f9054906101000a900460ff1680156115a2575083600b5f8381526020019081526020015f2054145b80156115e157508473ffffffffffffffffffffffffffffffffffffffff166115c982611016565b73ffffffffffffffffffffffffffffffffffffffff16145b80156116075750600f5f8281526020019081526020015f205f9054906101000a900460ff165b15611618578091506001925061162b565b808061162390613577565b91505061155e565b508161166c576040517f08c379a000000000000000000000000000000000000000000000000000000000815260040161166390613d7d565b60405180910390fd5b600e5f8281526020019081526020015f205434146116bf576040517f08c379a00000000000000000000000000000000000000000000000000000000081526004016116b690613de5565b60405180910390fd5b6116ca8433836121c0565b5f600f5f8381526020019081526020015f205f6101000a81548160ff0219169083151502179055505f600e5f8381526020019081526020015f20819055505f8473ffffffffffffffffffffffffffffffffffffffff163460405161172d9061381d565b5f6040518083038185875af1925050503d805f8114611767576040519150601f19603f3d011682016040523d82523d5f602084013e61176c565b606091505b50509050806117b0576040517f08c379a00000000000000000000000000000000000000000000000000000000081526004016117a790613e4d565b60405180910390fd5b5050505050565b6117c2848484610b95565b6117d66117cd611c67565b85858585612328565b50505050565b600b602052805f5260405f205f915090505481565b60606117fc82611ba8565b505f60065f8481526020019081526020015f20805461181a906135eb565b80601f0160208091040260200160405190810160405280929190818152602001828054611846906135eb565b80156118915780601f1061186857610100808354040283529160200191611891565b820191905f5260205f20905b81548152906001019060200180831161187457829003601f168201915b505050505090505f6118a16124d4565b90505f8151036118b55781925050506118f7565b5f825111156118e95780826040516020016118d1929190613ea5565b604051602081830303815290604052925050506118f7565b6118f2846124ea565b925050505b919050565b5f60055f8473ffffffffffffffffffffffffffffffffffffffff1673ffffffffffffffffffffffffffffffffffffffff1681526020019081526020015f205f8373ffffffffffffffffffffffffffffffffffffffff1673ffffffffffffffffffffffffffffffffffffffff1681526020019081526020015f205f9054906101000a900460ff16905092915050565b611992611f0d565b5f73ffffffffffffffffffffffffffffffffffffffff168173ffffffffffffffffffffffffffffffffffffffff1603611a02575f6040517f1e4fbdf70000000000000000000000000000000000000000000000000000000081526004016119f9919061305a565b60405180910390fd5b611a0b81611f94565b50565b60095f9054906101000a900473ffffffffffffffffffffffffffffffffffffffff1681565b600f602052805f5260405f205f915054906101000a900460ff1681565b5f7f80ac58cd000000000000000000000000000000000000000000000000000000007bffffffffffffffffffffffffffffffffffffffffffffffffffffffff1916827bffffffffffffffffffffffffffffffffffffffffffffffffffffffff19161480611b1a57507f5b5e139f000000000000000000000000000000000000000000000000000000007bffffffffffffffffffffffffffffffffffffffffffffffffffffffff1916827bffffffffffffffffffffffffffffffffffffffffffffffffffffffff1916145b80611b2a5750611b2982612550565b5b9050919050565b611b4a828260405180602001604052805f8152506125b9565b5050565b8060065f8481526020019081526020015f209081611b6c9190613c3e565b507ff8e1a15aba9398e019f0b49df1a4fde98ee17ae345cb5f6b5e2c27f5033e8ce782604051611b9c9190612f98565b60405180910390a15050565b5f80611bb3836125dc565b90505f73ffffffffffffffffffffffffffffffffffffffff168173ffffffffffffffffffffffffffffffffffffffff1603611c2557826040517f7e273289000000000000000000000000000000000000000000000000000000008152600401611c1c9190612f98565b60405180910390fd5b80915050919050565b5f60045f8381526020019081526020015f205f9054906101000a900473ffffffffffffffffffffffffffffffffffffffff169050919050565b5f33905090565b611c7b8383836001612615565b505050565b5f80611c8b846125dc565b90505f73ffffffffffffffffffffffffffffffffffffffff168373ffffffffffffffffffffffffffffffffffffffff1614611ccc57611ccb8184866127d4565b5b5f73ffffffffffffffffffffffffffffffffffffffff168173ffffffffffffffffffffffffffffffffffffffff1614611d5757611d0b5f855f80612615565b600160035f8373ffffffffffffffffffffffffffffffffffffffff1673ffffffffffffffffffffffffffffffffffffffff1681526020019081526020015f205f82825403925050819055505b5f73ffffffffffffffffffffffffffffffffffffffff168573ffffffffffffffffffffffffffffffffffffffff1614611dd657600160035f8773ffffffffffffffffffffffffffffffffffffffff1673ffffffffffffffffffffffffffffffffffffffff1681526020019081526020015f205f82825401925050819055505b8460025f8681526020019081526020015f205f6101000a81548173ffffffffffffffffffffffffffffffffffffffff021916908373ffffffffffffffffffffffffffffffffffffffff160217905550838573ffffffffffffffffffffffffffffffffffffffff168273ffffffffffffffffffffffffffffffffffffffff167fddf252ad1be2c89b69c2b068fc378daa952ba7f163c4a11628f55a4df523b3ef60405160405180910390a4809150509392505050565b5f611e975f835f611c80565b90505f73ffffffffffffffffffffffffffffffffffffffff168173ffffffffffffffffffffffffffffffffffffffff1603611f0957816040517f7e273289000000000000000000000000000000000000000000000000000000008152600401611f009190612f98565b60405180910390fd5b5050565b611f15611c67565b73ffffffffffffffffffffffffffffffffffffffff16611f33611489565b73ffffffffffffffffffffffffffffffffffffffff1614611f9257611f56611c67565b6040517f118cdaa7000000000000000000000000000000000000000000000000000000008152600401611f89919061305a565b60405180910390fd5b565b5f60075f9054906101000a900473ffffffffffffffffffffffffffffffffffffffff1690508160075f6101000a81548173ffffffffffffffffffffffffffffffffffffffff021916908373ffffffffffffffffffffffffffffffffffffffff1602179055508173ffffffffffffffffffffffffffffffffffffffff168173ffffffffffffffffffffffffffffffffffffffff167f8be0079c531659141344cd1fd0a4f28419497f9722a3daafe3b4186f6b6457e060405160405180910390a35050565b5f73ffffffffffffffffffffffffffffffffffffffff168273ffffffffffffffffffffffffffffffffffffffff16036120c757816040517f5b08ba180000000000000000000000000000000000000000000000000000000081526004016120be919061305a565b60405180910390fd5b8060055f8573ffffffffffffffffffffffffffffffffffffffff1673ffffffffffffffffffffffffffffffffffffffff1681526020019081526020015f205f8473ffffffffffffffffffffffffffffffffffffffff1673ffffffffffffffffffffffffffffffffffffffff1681526020019081526020015f205f6101000a81548160ff0219169083151502179055508173ffffffffffffffffffffffffffffffffffffffff168373ffffffffffffffffffffffffffffffffffffffff167f17307eab39ab6107e8899845ad3d59bd9653f200f220920489ca2b5937696c31836040516121b39190612cee565b60405180910390a3505050565b5f73ffffffffffffffffffffffffffffffffffffffff168273ffffffffffffffffffffffffffffffffffffffff1603612230575f6040517f64a0ae92000000000000000000000000000000000000000000000000000000008152600401612227919061305a565b60405180910390fd5b5f61223c83835f611c80565b90505f73ffffffffffffffffffffffffffffffffffffffff168173ffffffffffffffffffffffffffffffffffffffff16036122ae57816040517f7e2732890000000000000000000000000000000000000000000000000000000081526004016122a59190612f98565b60405180910390fd5b8373ffffffffffffffffffffffffffffffffffffffff168173ffffffffffffffffffffffffffffffffffffffff1614612322578382826040517f64283d7b0000000000000000000000000000000000000000000000000000000081526004016123199392919061361b565b60405180910390fd5b50505050565b5f8373ffffffffffffffffffffffffffffffffffffffff163b11156124cd578273ffffffffffffffffffffffffffffffffffffffff1663150b7a02868685856040518563ffffffff1660e01b81526004016123869493929190613f1a565b6020604051808303815f875af19250505080156123c157506040513d601f19601f820116820180604052508101906123be9190613f78565b60015b612442573d805f81146123ef576040519150601f19603f3d011682016040523d82523d5f602084013e6123f4565b606091505b505f81510361243a57836040517f64a0ae92000000000000000000000000000000000000000000000000000000008152600401612431919061305a565b60405180910390fd5b805181602001fd5b63150b7a0260e01b7bffffffffffffffffffffffffffffffffffffffffffffffffffffffff1916817bffffffffffffffffffffffffffffffffffffffffffffffffffffffff1916146124cb57836040517f64a0ae920000000000000000000000000000000000000000000000000000000081526004016124c2919061305a565b60405180910390fd5b505b5050505050565b606060405180602001604052805f815250905090565b60606124f582611ba8565b505f6124ff6124d4565b90505f81511161251d5760405180602001604052805f815250612548565b8061252784612897565b604051602001612538929190613ea5565b6040516020818303038152906040525b915050919050565b5f7f01ffc9a7000000000000000000000000000000000000000000000000000000007bffffffffffffffffffffffffffffffffffffffffffffffffffffffff1916827bffffffffffffffffffffffffffffffffffffffffffffffffffffffff1916149050919050565b6125c38383612961565b6125d76125ce611c67565b5f858585612328565b505050565b5f60025f8381526020019081526020015f205f9054906101000a900473ffffffffffffffffffffffffffffffffffffffff169050919050565b808061264d57505f73ffffffffffffffffffffffffffffffffffffffff168273ffffffffffffffffffffffffffffffffffffffff1614155b1561277f575f61265c84611ba8565b90505f73ffffffffffffffffffffffffffffffffffffffff168373ffffffffffffffffffffffffffffffffffffffff16141580156126c657508273ffffffffffffffffffffffffffffffffffffffff168173ffffffffffffffffffffffffffffffffffffffff1614155b80156126d957506126d781846118fc565b155b1561271b57826040517fa9fbf51f000000000000000000000000000000000000000000000000000000008152600401612712919061305a565b60405180910390fd5b811561277d57838573ffffffffffffffffffffffffffffffffffffffff168273ffffffffffffffffffffffffffffffffffffffff167f8c5be1e5ebec7d5bd14f71427d1e84f3dd0314c0f7b2291e5b200ac8c7c3b92560405160405180910390a45b505b8360045f8581526020019081526020015f205f6101000a81548173ffffffffffffffffffffffffffffffffffffffff021916908373ffffffffffffffffffffffffffffffffffffffff16021790555050505050565b6127df838383612a54565b612892575f73ffffffffffffffffffffffffffffffffffffffff168373ffffffffffffffffffffffffffffffffffffffff160361285357806040517f7e27328900000000000000000000000000000000000000000000000000000000815260040161284a9190612f98565b60405180910390fd5b81816040517f177e802f000000000000000000000000000000000000000000000000000000008152600401612889929190613fa3565b60405180910390fd5b505050565b60605f60016128a584612b14565b0190505f8167ffffffffffffffff8111156128c3576128c2612df9565b5b6040519080825280601f01601f1916602001820160405280156128f55781602001600182028036833780820191505090505b5090505f82602001820190505b600115612956578080600190039150507f3031323334353637383961626364656600000000000000000000000000000000600a86061a8153600a858161294b5761294a613fca565b5b0494505f8503612902575b819350505050919050565b5f73ffffffffffffffffffffffffffffffffffffffff168273ffffffffffffffffffffffffffffffffffffffff16036129d1575f6040517f64a0ae920000000000000000000000000000000000000000000000000000000081526004016129c8919061305a565b60405180910390fd5b5f6129dd83835f611c80565b90505f73ffffffffffffffffffffffffffffffffffffffff168173ffffffffffffffffffffffffffffffffffffffff1614612a4f575f6040517f73c6ac6e000000000000000000000000000000000000000000000000000000008152600401612a46919061305a565b60405180910390fd5b505050565b5f8073ffffffffffffffffffffffffffffffffffffffff168373ffffffffffffffffffffffffffffffffffffffff1614158015612b0b57508273ffffffffffffffffffffffffffffffffffffffff168473ffffffffffffffffffffffffffffffffffffffff161480612acc5750612acb84846118fc565b5b80612b0a57508273ffffffffffffffffffffffffffffffffffffffff16612af283611c2e565b73ffffffffffffffffffffffffffffffffffffffff16145b5b90509392505050565b5f805f90507a184f03e93ff9f4daa797ed6e38ed64bf6a1f0100000000000000008310612b70577a184f03e93ff9f4daa797ed6e38ed64bf6a1f0100000000000000008381612b6657612b65613fca565b5b0492506040810190505b6d04ee2d6d415b85acef81000000008310612bad576d04ee2d6d415b85acef81000000008381612ba357612ba2613fca565b5b0492506020810190505b662386f26fc100008310612bdc57662386f26fc100008381612bd257612bd1613fca565b5b0492506010810190505b6305f5e1008310612c05576305f5e1008381612bfb57612bfa613fca565b5b0492506008810190505b6127108310612c2a576127108381612c2057612c1f613fca565b5b0492506004810190505b60648310612c4d5760648381612c4357612c42613fca565b5b0492506002810190505b600a8310612c5c576001810190505b80915050919050565b5f604051905090565b5f80fd5b5f80fd5b5f819050919050565b612c8881612c76565b8114612c92575f80fd5b50565b5f81359050612ca381612c7f565b92915050565b5f60208284031215612cbe57612cbd612c6e565b5b5f612ccb84828501612c95565b91505092915050565b5f8115159050919050565b612ce881612cd4565b82525050565b5f602082019050612d015f830184612cdf565b92915050565b5f7fffffffff0000000000000000000000000000000000000000000000000000000082169050919050565b612d3b81612d07565b8114612d45575f80fd5b50565b5f81359050612d5681612d32565b92915050565b5f60208284031215612d7157612d70612c6e565b5b5f612d7e84828501612d48565b91505092915050565b5f73ffffffffffffffffffffffffffffffffffffffff82169050919050565b5f612db082612d87565b9050919050565b612dc081612da6565b8114612dca575f80fd5b50565b5f81359050612ddb81612db7565b92915050565b5f80fd5b5f80fd5b5f601f19601f8301169050919050565b7f4e487b71000000000000000000000000000000000000000000000000000000005f52604160045260245ffd5b612e2f82612de9565b810181811067ffffffffffffffff82111715612e4e57612e4d612df9565b5b80604052505050565b5f612e60612c65565b9050612e6c8282612e26565b919050565b5f67ffffffffffffffff821115612e8b57612e8a612df9565b5b612e9482612de9565b9050602081019050919050565b828183375f83830152505050565b5f612ec1612ebc84612e71565b612e57565b905082815260208101848484011115612edd57612edc612de5565b5b612ee8848285612ea1565b509392505050565b5f82601f830112612f0457612f03612de1565b5b8135612f14848260208601612eaf565b91505092915050565b5f805f60608486031215612f3457612f33612c6e565b5b5f612f4186828701612dcd565b9350506020612f5286828701612c95565b925050604084013567ffffffffffffffff811115612f7357612f72612c72565b5b612f7f86828701612ef0565b9150509250925092565b612f9281612c76565b82525050565b5f602082019050612fab5f830184612f89565b92915050565b5f81519050919050565b5f82825260208201905092915050565b5f5b83811015612fe8578082015181840152602081019050612fcd565b5f8484015250505050565b5f612ffd82612fb1565b6130078185612fbb565b9350613017818560208601612fcb565b61302081612de9565b840191505092915050565b5f6020820190508181035f8301526130438184612ff3565b905092915050565b61305481612da6565b82525050565b5f60208201905061306d5f83018461304b565b92915050565b5f806040838503121561308957613088612c6e565b5b5f61309685828601612dcd565b92505060206130a785828601612c95565b9150509250929050565b5f60c0820190506130c45f83018961304b565b81810360208301526130d68188612ff3565b90506130e56040830187612f89565b6130f26060830186612f89565b6130ff6080830185612cdf565b61310c60a0830184612cdf565b979650505050505050565b5f805f6060848603121561312e5761312d612c6e565b5b5f61313b86828701612dcd565b935050602061314c86828701612dcd565b925050604061315d86828701612c95565b9150509250925092565b5f6020828403121561317c5761317b612c6e565b5b5f61318984828501612dcd565b91505092915050565b5f805f606084860312156131a9576131a8612c6e565b5b5f6131b686828701612dcd565b93505060206131c786828701612c95565b92505060406131d886828701612c95565b9150509250925092565b5f805f606084860312156131f9576131f8612c6e565b5b5f61320686828701612c95565b935050602084013567ffffffffffffffff81111561322757613226612c72565b5b61323386828701612ef0565b925050604061324486828701612c95565b9150509250925092565b61325781612cd4565b8114613261575f80fd5b50565b5f813590506132728161324e565b92915050565b5f806040838503121561328e5761328d612c6e565b5b5f61329b85828601612dcd565b92505060206132ac85828601613264565b9150509250929050565b5f67ffffffffffffffff8211156132d0576132cf612df9565b5b6132d982612de9565b9050602081019050919050565b5f6132f86132f3846132b6565b612e57565b90508281526020810184848401111561331457613313612de5565b5b61331f848285612ea1565b509392505050565b5f82601f83011261333b5761333a612de1565b5b813561334b8482602086016132e6565b91505092915050565b5f805f806080858703121561336c5761336b612c6e565b5b5f61337987828801612dcd565b945050602061338a87828801612dcd565b935050604061339b87828801612c95565b925050606085013567ffffffffffffffff8111156133bc576133bb612c72565b5b6133c887828801613327565b91505092959194509250565b5f80604083850312156133ea576133e9612c6e565b5b5f6133f785828601612dcd565b925050602061340885828601612dcd565b9150509250929050565b7f4576656e7420646f6573206e6f742065786973740000000000000000000000005f82015250565b5f613446601483612fbb565b915061345182613412565b602082019050919050565b5f6020820190508181035f8301526134738161343a565b9050919050565b7f4576656e742063616e63656c6c656400000000000000000000000000000000005f82015250565b5f6134ae600f83612fbb565b91506134b98261347a565b602082019050919050565b5f6020820190508181035f8301526134db816134a2565b9050919050565b7f416c6c207469636b65747320736f6c64000000000000000000000000000000005f82015250565b5f613516601083612fbb565b9150613521826134e2565b602082019050919050565b5f6020820190508181035f8301526135438161350a565b9050919050565b7f4e487b71000000000000000000000000000000000000000000000000000000005f52601160045260245ffd5b5f61358182612c76565b91507fffffffffffffffffffffffffffffffffffffffffffffffffffffffffffffffff82036135b3576135b261354a565b5b600182019050919050565b7f4e487b71000000000000000000000000000000000000000000000000000000005f52602260045260245ffd5b5f600282049050600182168061360257607f821691505b602082108103613615576136146135be565b5b50919050565b5f60608201905061362e5f83018661304b565b61363b6020830185612f89565b613648604083018461304b565b949350505050565b7f5469636b657420646f65736e27742065786973740000000000000000000000005f82015250565b5f613684601483612fbb565b915061368f82613650565b602082019050919050565b5f6020820190508181035f8301526136b181613678565b9050919050565b7f4e6f74207469636b6574206f776e6572000000000000000000000000000000005f82015250565b5f6136ec601083612fbb565b91506136f7826136b8565b602082019050919050565b5f6020820190508181035f830152613719816136e0565b9050919050565b7f4576656e74206e6f742063616e63656c6c6564000000000000000000000000005f82015250565b5f613754601383612fbb565b915061375f82613720565b602082019050919050565b5f6020820190508181035f83015261378181613748565b9050919050565b7f416c726561647920726566756e646564206f72206e6f207072696365000000005f82015250565b5f6137bc601c83612fbb565b91506137c782613788565b602082019050919050565b5f6020820190508181035f8301526137e9816137b0565b9050919050565b5f81905092915050565b50565b5f6138085f836137f0565b9150613813826137fa565b5f82019050919050565b5f613827826137fd565b9150819050919050565b7f526566756e64206661696c6564000000000000000000000000000000000000005f82015250565b5f613865600d83612fbb565b915061387082613831565b602082019050919050565b5f6020820190508181035f83015261389281613859565b9050919050565b7f4e6f74206f7267616e697a6572000000000000000000000000000000000000005f82015250565b5f6138cd600d83612fbb565b91506138d882613899565b602082019050919050565b5f6020820190508181035f8301526138fa816138c1565b9050919050565b7f5072696365206d757374206265203e20300000000000000000000000000000005f82015250565b5f613935601183612fbb565b915061394082613901565b602082019050919050565b5f6020820190508181035f83015261396281613929565b9050919050565b7f4576656e742069732063616e63656c6c656400000000000000000000000000005f82015250565b5f61399d601283612fbb565b91506139a882613969565b602082019050919050565b5f6020820190508181035f8301526139ca81613991565b9050919050565b7f4e6f207469636b657420666f756e6420666f7220757365722026206576656e745f82015250565b5f613a05602083612fbb565b9150613a10826139d1565b602082019050919050565b5f6020820190508181035f830152613a32816139f9565b9050919050565b7f4576656e7420616c7265616479206578697374730000000000000000000000005f82015250565b5f613a6d601483612fbb565b9150613a7882613a39565b602082019050919050565b5f6020820190508181035f830152613a9a81613a61565b9050919050565b5f819050815f5260205f209050919050565b5f6020601f8301049050919050565b5f82821b905092915050565b5f60088302613afd7fffffffffffffffffffffffffffffffffffffffffffffffffffffffffffffffff82613ac2565b613b078683613ac2565b95508019841693508086168417925050509392505050565b5f819050919050565b5f613b42613b3d613b3884612c76565b613b1f565b612c76565b9050919050565b5f819050919050565b613b5b83613b28565b613b6f613b6782613b49565b848454613ace565b825550505050565b5f90565b613b83613b77565b613b8e818484613b52565b505050565b5b81811015613bb157613ba65f82613b7b565b600181019050613b94565b5050565b601f821115613bf657613bc781613aa1565b613bd084613ab3565b81016020851015613bdf578190505b613bf3613beb85613ab3565b830182613b93565b50505b505050565b5f82821c905092915050565b5f613c165f1984600802613bfb565b1980831691505092915050565b5f613c2e8383613c07565b9150826002028217905092915050565b613c4782612fb1565b67ffffffffffffffff811115613c6057613c5f612df9565b5b613c6a82546135eb565b613c75828285613bb5565b5f60209050601f831160018114613ca6575f8415613c94578287015190505b613c9e8582613c23565b865550613d05565b601f198416613cb486613aa1565b5f5b82811015613cdb57848901518255600182019150602085019450602081019050613cb6565b86831015613cf85784890151613cf4601f891682613c07565b8355505b6001600288020188555050505b505050505050565b7f4e6f20726573616c65207469636b657420617661696c61626c652066726f6d205f8201527f73656c6c657220666f722074686973206576656e740000000000000000000000602082015250565b5f613d67603583612fbb565b9150613d7282613d0d565b604082019050919050565b5f6020820190508181035f830152613d9481613d5b565b9050919050565b7f496e636f727265637420707269636500000000000000000000000000000000005f82015250565b5f613dcf600f83612fbb565b9150613dda82613d9b565b602082019050919050565b5f6020820190508181035f830152613dfc81613dc3565b9050919050565b7f5061796d656e74206661696c65640000000000000000000000000000000000005f82015250565b5f613e37600e83612fbb565b9150613e4282613e03565b602082019050919050565b5f6020820190508181035f830152613e6481613e2b565b9050919050565b5f81905092915050565b5f613e7f82612fb1565b613e898185613e6b565b9350613e99818560208601612fcb565b80840191505092915050565b5f613eb08285613e75565b9150613ebc8284613e75565b91508190509392505050565b5f81519050919050565b5f82825260208201905092915050565b5f613eec82613ec8565b613ef68185613ed2565b9350613f06818560208601612fcb565b613f0f81612de9565b840191505092915050565b5f608082019050613f2d5f83018761304b565b613f3a602083018661304b565b613f476040830185612f89565b8181036060830152613f598184613ee2565b905095945050505050565b5f81519050613f7281612d32565b92915050565b5f60208284031215613f8d57613f8c612c6e565b5b5f613f9a84828501613f64565b91505092915050565b5f604082019050613fb65f83018561304b565b613fc36020830184612f89565b9392505050565b7f4e487b71000000000000000000000000000000000000000000000000000000005f52601260045260245ffdfea2646970667358221220300ce920f6724effaec6839bdd41632d04d6003dcd3d23764ce91ee93ee6034c64736f6c63430008150033",
  "immutableReferences": {},
  "source": "// SPDX-License-Identifier: MIT\npragma solidity ^0.8.19;\n\nimport \"@openzeppelin/contracts/token/ERC721/extensions/ERC721URIStorage.sol\";\nimport \"@openzeppelin/contracts/access/Ownable.sol\";\n\ncontract EventureNFT is ERC721URIStorage, Ownable {\n    uint256 public nextTokenId;\n    address public admin;\n\n    struct Event {\n        address organizer;\n        string metadataHash;\n        uint256 maxTickets;\n        uint256 soldCount;\n        bool isCancelled;\n        bool exists;\n    }\n\n    mapping(uint256 => Event) public events;\n    mapping(uint256 => uint256) public ticketEvent;   // tokenId => eventId\n    mapping(uint256 => uint256) public ticketPrice;   // tokenId => price paid\n    mapping(uint256 => bool) public tokenExists;      // tokenId => minted\n\n    mapping(uint256 => uint256) public resalePrice;\n    mapping(uint256 => bool) public isListed;\n\n    constructor() ERC721(\"EventureTicket\", \"ETIX\") Ownable(msg.sender) {\n        admin = msg.sender;\n    }\n\n    modifier onlyAdmin() {\n        require(msg.sender == admin, \"Not admin\");\n        _;\n    }\n\n    function createEvent(\n        uint256 eventId,\n        string memory metadataHash,\n        uint256 maxTickets\n    ) external {\n        require(!events[eventId].exists, \"Event already exists\");\n        events[eventId] = Event({\n            organizer: msg.sender,\n            metadataHash: metadataHash,\n            maxTickets: maxTickets,\n            soldCount: 0,\n            isCancelled: false,\n            exists: true\n        });\n    }\n\n    function mintTicket(\n        address to,\n        uint256 eventId,\n        string memory tokenURI\n    ) external payable {\n        Event storage e = events[eventId];\n        require(e.exists, \"Event does not exist\");\n        require(!e.isCancelled, \"Event cancelled\");\n        require(e.soldCount < e.maxTickets, \"All tickets sold\");\n\n        uint256 tokenId = nextTokenId;\n\n        _safeMint(to, tokenId);\n        _setTokenURI(tokenId, tokenURI);\n\n        ticketEvent[tokenId] = eventId;\n        ticketPrice[tokenId] = msg.value;\n        tokenExists[tokenId] = true;\n\n        e.soldCount++;\n        nextTokenId++;\n    }\n\n    function cancelEvent(uint256 eventId) external {\n        require(events[eventId].organizer == msg.sender, \"Not organizer\");\n        events[eventId].isCancelled = true;\n    }\n\n    function refund(uint256 tokenId) external {\n        require(tokenExists[tokenId], \"Ticket doesn't exist\");\n        require(ownerOf(tokenId) == msg.sender, \"Not ticket owner\");\n\n        uint256 eventId = ticketEvent[tokenId];\n        require(events[eventId].isCancelled, \"Event not cancelled\");\n\n        uint256 price = ticketPrice[tokenId];\n        require(price > 0, \"Already refunded or no price\");\n\n        _burn(tokenId);\n        tokenExists[tokenId] = false;\n        ticketPrice[tokenId] = 0;\n\n        (bool sent, ) = payable(msg.sender).call{value: price}(\"\");\n        require(sent, \"Refund failed\");\n    }\n\n   function listTicketForResale(address user, uint256 eventId, uint256 price) external {\n        require(price > 0, \"Price must be > 0\");\n        require(!events[eventId].isCancelled, \"Event is cancelled\");\n\n        bool found = false;\n        uint256 tokenIdToList;\n\n        for (uint256 i = 0; i < nextTokenId; i++) {\n            if (tokenExists[i] && ticketEvent[i] == eventId && ownerOf(i) == user) {\n                tokenIdToList = i;\n                found = true;\n                break;\n            }\n        }\n\n        require(found, \"No ticket found for user & event\");\n\n        isListed[tokenIdToList] = true;\n        resalePrice[tokenIdToList] = price;\n    }\n\n    function buyResaleTicket(address seller, uint256 eventId) external payable {\n        bool found = false;\n        uint256 tokenIdToBuy;\n\n        for (uint256 i = 0; i < nextTokenId; i++) {\n            if (\n                tokenExists[i] &&\n                ticketEvent[i] == eventId &&\n                ownerOf(i) == seller &&\n                isListed[i]\n            ) {\n                tokenIdToBuy = i;\n                found = true;\n                break;\n            }\n        }\n\n        require(found, \"No resale ticket available from seller for this event\");\n        require(msg.value == resalePrice[tokenIdToBuy], \"Incorrect price\");\n\n        _transfer(seller, msg.sender, tokenIdToBuy);\n\n        isListed[tokenIdToBuy] = false;\n        resalePrice[tokenIdToBuy] = 0;\n\n        (bool sent, ) = payable(seller).call{value: msg.value}(\"\");\n        require(sent, \"Payment failed\");\n    }\n\n\n    function setAdmin(address newAdmin) external onlyOwner {\n        admin = newAdmin;\n    }\n\n    receive() external payable {}\n}",
  "sourcePath": "/home/satvik/Desktop/BrandProduct/contracts/Eventure.sol",
  "compiler": {
    "name": "solc",
    "version": "0.8.21+commit.d9974bed.Emscripten.clang"
  },
  "schemaVersion": "3.4.16",
  "updatedAt": "2025-06-17T04:03:53.371Z",
  "networkType": "ethereum",
  "devdoc": {
    "errors": {
      "ERC721IncorrectOwner(address,uint256,address)": [
        {
          "details": "Indicates an error related to the ownership over a particular token. Used in transfers.",
          "params": {
            "owner": "Address of the current owner of a token.",
            "sender": "Address whose tokens are being transferred.",
            "tokenId": "Identifier number of a token."
          }
        }
      ],
      "ERC721InsufficientApproval(address,uint256)": [
        {
          "details": "Indicates a failure with the `operator`s approval. Used in transfers.",
          "params": {
            "operator": "Address that may be allowed to operate on tokens without being their owner.",
            "tokenId": "Identifier number of a token."
          }
        }
      ],
      "ERC721InvalidApprover(address)": [
        {
          "details": "Indicates a failure with the `approver` of a token to be approved. Used in approvals.",
          "params": {
            "approver": "Address initiating an approval operation."
          }
        }
      ],
      "ERC721InvalidOperator(address)": [
        {
          "details": "Indicates a failure with the `operator` to be approved. Used in approvals.",
          "params": {
            "operator": "Address that may be allowed to operate on tokens without being their owner."
          }
        }
      ],
      "ERC721InvalidOwner(address)": [
        {
          "details": "Indicates that an address can't be an owner. For example, `address(0)` is a forbidden owner in ERC-20. Used in balance queries.",
          "params": {
            "owner": "Address of the current owner of a token."
          }
        }
      ],
      "ERC721InvalidReceiver(address)": [
        {
          "details": "Indicates a failure with the token `receiver`. Used in transfers.",
          "params": {
            "receiver": "Address to which tokens are being transferred."
          }
        }
      ],
      "ERC721InvalidSender(address)": [
        {
          "details": "Indicates a failure with the token `sender`. Used in transfers.",
          "params": {
            "sender": "Address whose tokens are being transferred."
          }
        }
      ],
      "ERC721NonexistentToken(uint256)": [
        {
          "details": "Indicates a `tokenId` whose `owner` is the zero address.",
          "params": {
            "tokenId": "Identifier number of a token."
          }
        }
      ],
      "OwnableInvalidOwner(address)": [
        {
          "details": "The owner is not a valid owner account. (eg. `address(0)`)"
        }
      ],
      "OwnableUnauthorizedAccount(address)": [
        {
          "details": "The caller account is not authorized to perform an operation."
        }
      ]
    },
    "events": {
      "Approval(address,address,uint256)": {
        "details": "Emitted when `owner` enables `approved` to manage the `tokenId` token."
      },
      "ApprovalForAll(address,address,bool)": {
        "details": "Emitted when `owner` enables or disables (`approved`) `operator` to manage all of its assets."
      },
      "BatchMetadataUpdate(uint256,uint256)": {
        "details": "This event emits when the metadata of a range of tokens is changed. So that the third-party platforms such as NFT market could timely update the images and related attributes of the NFTs."
      },
      "MetadataUpdate(uint256)": {
        "details": "This event emits when the metadata of a token is changed. So that the third-party platforms such as NFT market could timely update the images and related attributes of the NFT."
      },
      "Transfer(address,address,uint256)": {
        "details": "Emitted when `tokenId` token is transferred from `from` to `to`."
      }
    },
    "kind": "dev",
    "methods": {
      "approve(address,uint256)": {
        "details": "See {IERC721-approve}."
      },
      "balanceOf(address)": {
        "details": "See {IERC721-balanceOf}."
      },
      "getApproved(uint256)": {
        "details": "See {IERC721-getApproved}."
      },
      "isApprovedForAll(address,address)": {
        "details": "See {IERC721-isApprovedForAll}."
      },
      "name()": {
        "details": "See {IERC721Metadata-name}."
      },
      "owner()": {
        "details": "Returns the address of the current owner."
      },
      "ownerOf(uint256)": {
        "details": "See {IERC721-ownerOf}."
      },
      "renounceOwnership()": {
        "details": "Leaves the contract without owner. It will not be possible to call `onlyOwner` functions. Can only be called by the current owner. NOTE: Renouncing ownership will leave the contract without an owner, thereby disabling any functionality that is only available to the owner."
      },
      "safeTransferFrom(address,address,uint256)": {
        "details": "See {IERC721-safeTransferFrom}."
      },
      "safeTransferFrom(address,address,uint256,bytes)": {
        "details": "See {IERC721-safeTransferFrom}."
      },
      "setApprovalForAll(address,bool)": {
        "details": "See {IERC721-setApprovalForAll}."
      },
      "supportsInterface(bytes4)": {
        "details": "See {IERC165-supportsInterface}"
      },
      "symbol()": {
        "details": "See {IERC721Metadata-symbol}."
      },
      "tokenURI(uint256)": {
        "details": "See {IERC721Metadata-tokenURI}."
      },
      "transferFrom(address,address,uint256)": {
        "details": "See {IERC721-transferFrom}."
      },
      "transferOwnership(address)": {
        "details": "Transfers ownership of the contract to a new account (`newOwner`). Can only be called by the current owner."
      }
    },
    "version": 1
  },
  "userdoc": {
    "kind": "user",
    "methods": {},
    "version": 1
  }
}